:100000000C9460000C947F000C947F000C947F0093
:100010000C947F000C947F000C947F000C947F0064
:100020000C947F000C947F000C947F000C947F0054
:100030000C947F000C947F000C947F000C947F0044
:100040000C947F000C947F000C947F000C947F0034
:100050000C947F000C947F000C947F000C947F0024
:100060000C947F000C947F000C947F000C947F0014
:100070000C947F000C947F000C947F000C947F0004
:100080000C947F000C947F000C947F00D700E70055
:10009000B8014A01210139015B017101A701BF01CA
:1000A000E6013201D001370237022902200237026D
:1000B0003702370237023702370237021A022F029D
:1000C00011241FBECFEFD0E4DEBFCDBF11E0A0E012
:1000D000B1E0E4EDF4E000E00BBF02C007900D9248
:1000E000AE30B107D9F721E0AEE0B1E001C01D921A
:1000F000A231B207E1F70E943E020C9468020C9410
:100100000000CF93DF9300D01F92CDB7DEB7898375
:100110007B836A8389818A3031F48A819B81BC0127
:100120008DE00E94810080EC90E0FC018081882FAE
:1001300090E080729927892BB1F386EC90E02981B9
:10014000FC01208380E090E00F900F900F90DF91F2
:10015000CF910895CF93DF9300D0CDB7DEB780E283
:1001600090E0FC018081882F90E08170992721E048
:10017000892B09F020E0298385E290E0FC01808151
:100180008A8380910E0190910F01CC01A0E0B0E034
:1001900040E050E02CE030E0841B950B2817390735
:1001A00008F42EC18A5B9F4FFC010C945F0281E032
:1001B00090E090930F0180930E0180E38A83109268
:1001C000100185E290E02A81FC0120831EC1898113
:1001D0008130C1F4809110018530A0F484E090E07A
:1001E00090930F0180930E018A8186958A8385E220
:1001F00090E02A81FC012083809111018F5F809320
:1002000011011EC089818130A1F4809110018530D7
:1002100081F485E090E090930F0180930E0185E2D8
:1002200090E0FC011082809111018F5F8093110199
:1002300007C081E090E090930F0180930E01E5C02C
:10024000E4C08981882339F48BE090E090930F011A
:1002500080930E01DAC084E090E090930F018093C8
:100260000E01D3C081E090E090930F0180930E01C6
:10027000CCC08981882339F483E090E090930F010A
:1002800080930E01C2C085E090E090930F018093AF
:100290000E01BBC08981813039F486E090E09093F3
:1002A0000F0180930E01B1C083E090E090930F01A5
:1002B00080930E01AAC08981882361F487E090E0D1
:1002C00090930F0180930E0185E290E023E0FC0102
:1002D00020839BC086E090E090930F0180930E01F5
:1002E00094C089818130C1F4809110018530A0F4DF
:1002F00088E090E090930F0180930E018A81880F2F
:100300008A8385E290E02A81FC012083809111019B
:100310008F5F809311011AC08981813081F48091AF
:100320001001853061F489E090E090930F01809393
:100330000E01809111018F5F8093110107C087E04A
:1003400090E090930F0180930E015FC05EC08981A1
:10035000882339F482E090E090930F0180930E019E
:1003600054C088E090E090930F0180930E014DC03F
:1003700087E090E090930F0180930E0146C0898141
:10038000882339F48CE090E090930F0180930E0164
:100390003CC089E090E090930F0180930E0135C03E
:1003A0008981813061F48AE090E090930F0180931D
:1003B0000E01809111018F5F8093110126C08CE0A6
:1003C00090E090930F0180930E011FC089818823D4
:1003D00081F481E090E090930F0180930E0180E31F
:1003E0008A8385E290E02A81FC012083109210012B
:1003F0000CC08AE090E090930F0180930E0105C03D
:1004000010920F0110920E01000080910E01909148
:100410000F01CC01A0E0B0E040E050E02CE030E083
:10042000841B950B2817390700F18D5A9F4FFC014B
:100430000C945F02809110018F5F8093100118C0AF
:10044000109210011A8285E290E02A81FC0120833B
:100450000FC0809110018F5F8093100109C010922E
:10046000100185E290E0FC011082000001C0000054
:1004700000000F900F90DF91CF910895CF93DF93FD
:10048000CDB7DEB781E290E0FC01108282E290E01D
:100490002FEFFC01208384E290E02FEFFC0120830A
:1004A00085E290E0FC01108210921101109210017F
:1004B00010920F0110920E010E94AA00FDCFEE0FC4
:1004C000FF1F0024001C0BBE0790F691E02D09943D
:0404D000F894FFCFCE
:0E04D400000000020000000081000000000097
:00000001FF
